:1000000002001E00000000000000000200D00000FE
:10001000000000000000000000000002014C75819B
:100020005C120A1AE5826003020072780079007A95
:10003000007B007C007D00EC4D601C88828983E49D
:1000400093A3A882A9838A828B83F0A3AA82AB831D
:100050001CBCFFE31D80E07582007583007C007D81
:1000600000EC4D600AE4F0A31CBCFFF51D80F21209
:1000700000A31205EE80FE4269636570206D617811
:1000800020616E676C65206F6620313435005265E3
:1000900061647920666F7220636F6D6D616E647349
:1000A000210A0075390078597600785A7600785B15
:1000B000760A785C76FB227A2879FA78B8D8FED965
:1000C000FADAF6221201611202821201AE02032A4A
:1000D000C0E0C002C003C000C0D075D000C28C74A4
:1000E00014B5390E7580FF85218C85298A753900F4
:1000F000804B7403B5390E75800085318C85338A49
:1001000075390480387404B5390E758000758C27F4
:10011000758ACA7539148025E5392435F886800535
:1001200039E53925E02421F886020886038A8CE522
:100130003925E02429F886020886038A8AC28DD2EE
:100140008CD0D0D000D003D002D0E032C0D075D057
:1001500008D0D0327A0179C878B8D8FED9FADAF660
:10016000221201547A00BA04005042EA2455F8865B
:1001700003EA2A244DF88604088605187E00C3EC9D
:100180009BED9E500D0CBC00010DA60408A60518A1
:100190008018860408860518C3EB9CEE9D500B1C46
:1001A000BCFF011DA60408A605180A80B9227A0022
:1001B000BA04005009EA2412F8A6020A80F27A0072
:1001C000BA04004003020236EA2A2445F8860308EE
:1001D0008604188A058A06BE0400501EEE2EFF24EF
:1001E00045F8861608861718C3E5169BE5179C5038
:1001F00006AB16AC178E050E80DDEA2A2445F8867C
:100200000308860418ED2D2445F987060987071988
:10021000A60608A60718A70309A70419EA2412F8D6
:1002200086068E037C00ED2412F98705A6058B0552
:10023000A7050A0201C07BFF7C007A00BA040050C7
:100240002AEA2412F886058DF005F0740180022553
:10025000E0D5F0FBFDF67E00EDF4FDEEF4FEED5290
:1002600003EE52048B05A6050A80D17A00BA040079
:10027000500FEA2435F8EA2412F98703A6030A800E
:10028000EC22753A0074FC253A500122E53A253AF1
:10029000244DF8860308860418E53A2459F8E6FD4B
:1002A0003395E0FEED2BFBEE3CFC7D007E00C3743D
:1002B000AF9BE49CE49DE49E50087BAF7C007D00F6
:1002C0007E008B128C138D148E159003E8E4F5F0EC
:1002D00012061F85823B85833C85F03DF53E7460A8
:1002E000253BFB74EA353CFCE4353DFDE4353EFE40
:1002F0008B128C138D148E1590000AE4F5F0120603
:100300001F75120F75130175140075150012068DF7
:10031000AB82AC83ADF0FEE53A253AFA2445F8A667
:100320000308A60418053A02028578458602088665
:1003300003E4FCFD74FFC39AFA74FF9BFBE49CE4A6
:100340009D8B047D008C218D228A047D008C298D5B
:100350002A784B8604088605E4FEFF7412C39CFCD1
:1003600074489DFDE49EFEE49FFF74FFC39CFC74F3
:10037000FF9DFDE49EFEE49FFF8C028D038B317593
:1003800032008A3375340075180174FC2518405DFD
:10039000E51825E02445F8860408860518E51814B4
:1003A00025E02445F8860608860718ECC39EFCED78
:1003B0009FFDE4FEFF74FFC39CFC74FF9DFDE49E63
:1003C000FEE49FFF8C028D03E51825E02421F88BC5
:1003D000047D00A60408A60518E51825E0FC2429DC
:1003E000F87B00A60208A603180518809D227A0053
:1003F0007B007CFE90003F75F040C002C003C0044B
:100400001208EED004D003D002C298AD3FBD660200
:100410008031BD7802802C90003F75F040C00412FE
:100420000978AD82AE83D004C3ED9402EE940050FF
:10043000012290004075F040C004120701AA82AB6F
:1004400083D004AD3FBD6202801DBD65028041BD09
:100450006602804CBD7302800ABD7702803EBD7883
:100460004580417C03803FC374879AE49B40047CB1
:10047000028033C002C003C0047477C0E07400C0BF
:10048000E01207E515811581D004D003D002801653
:100490007C0174B4C39AFAE49BFB800A7C0080065A
:1004A0007CFF80027C0ABCFF03B2A422BC0A0302C8
:1004B00004C7BCFE0122ECA2E754036004500244CE
:1004C000FC2455F8A602227858765A1200B712007A
:1004D000B77855768C1200B71200B778567664124A
:1004E00000B71200B7785776301200B71200B7780D
:1004F0005676AA22E582FA2459F8E6FB30E724EB87
:100500003395E0FC8B828C83C0021206F2AB82AC86
:1005100083D002C3E5439BE5449C5007E4F543F5D3
:1005200044802CEA2459F8E6FB3395E0FCE5432BA4
:10053000FDE5443CFEC374AF9DE49E50087543AF97
:10054000E4F544800AEB2543F543EC3544F544EAF1
:100550002455F8AA43A6022275198C751AAA751B90
:100560003A751C557584007585FF7580007A00BA50
:100570000400501CEA2455F8EA2419F98703A6035D
:10058000EA2A244DF87C00A60308A604180A80DF96
:1005900022C28C758A00758C00438901D2A9D2AF22
:1005A000D28C22C28E758B00758D00438910D2AB20
:1005B000D2AFD28E2275BD0075BF0075BE3075BD3D
:1005C00003759852759100759200224391E0539201
:1005D0001FD2C275A12075A308758E052275A400CF
:1005E00075A5FFD2A0D2A1D2A2D2A3C2A422C2AF2B
:1005F0001205581200C41205911205A31205B51276
:1006000000B71205DD748EC0E07400C0E01207E58B
:10061000158115813098031203EE1200C480F5AAEB
:10062000F0FBE5828512F0A4FCADF0E5838512F0C5
:10063000A42DFDE435F0FEE5828513F0A42DFDE543
:10064000F03EFEE433FFEA8512F0A42EFEE5F03F13
:10065000FFE5838513F0A42EFEE5F03FFFE58285DC
:1006600014F0A42EFEE5F03FFFEB8512F0A42FFF5F
:10067000EA8513F0A42FFFE5838514F0A42FFFE58E
:10068000828515F0A42F8EF08D838C8222FB7A2038
:10069000E4FCFDFEFFE5822582F582E58333F583E8
:1006A000E5F033F5F0EB33FB4017DAE98042E58201
:1006B0002582F582E58333F583E5F033F5F0EB33FE
:1006C000FBEC33FCED33FDEE33FEEF33FFEC951224
:1006D000ED9513EE9514EF95154013EC9512FCED86
:1006E0009513FDEE9514FEEF9515FF438201DABEDA
:1006F000EB22E58330E709F4F583E582F4F582A384
:1007000022AA82AB83ACF07D007E008A078B008C2E
:10071000018F82888389F01209A0F5116035C374B6
:10072000B98511F063F08095F04008E5116480947C
:10073000B050208F82888389F01209A0F511742DA2
:10074000B51102800E742BB5110280070FBF00C1D6
:100750000880BE8F02880389048F82888389F01203
:1007600009A0FFBF2D03D38001C39200BF2D0280DB
:1007700003BF2B050ABA00010B8A828B838CF0120F
:1007800009A0FF604BC3EF648094B0404374B98FFD
:10079000F063F08095F040388D128E1390000AC0FF
:1007A00002C003C004C0071209BCAD82AE83D007EB
:1007B000D004D003D002EF3395E0F8EF24D0FFE867
:1007C00034FFF8EF2DFDE83EFE0ABA00AC0B80A91D
:1007D000300009C3E49DFAE49EFB80048D028E0381
:1007E0008A828B8322C010858110E51024FDF88653
:1007F0008318868218E493A324DB600C242560050B
:100800001208D380F00208EBD2D5E493A3C083C0D2
:1008100082B4731486F0188683188682181209A091
:100820006054A31208D380F5B4630818E6181208C0
:10083000D38043B46447E630E74618E6F42401F673
:1008400008E6F43400F6742D1208D38033B4782D02
:10085000868318868218E41208C4E5831208C3E56B
:10086000831208C4E5821208C3E5821208C430D599
:100870000574301208D3D082D0830207F5B475F620
:10088000E6FA18E6F9187C107D271208AEFF7CE81E
:100890007D031208AEC4F5837C647D001208AE426D
:1008A00083E975F00A84C445F0F582EF80A97B00E6
:1008B0000BC3E99CF9EA9DFA50F61BE92CF9EA3DD5
:1008C000FAEB22C4540F700320D51FC2D52490D454
:1008D0003440D4C083C082C0F0F582E8C0E0120981
:1008E000D9D0E0F8D0F0D082D08322D01022AA82D2
:1008F000AB83ACF07D007E00C002C003C004C00525
:10090000C0061209EEAF82D006D005D004D003D0C5
:1009100002BF0802800ABF0A028035BF0D43803043
:10092000ED4E60D4758220C002C003C004C005C073
:10093000061209D97582081209D9D006D005D0044B
:10094000D003D0021ABAFF011B1DBDFF011E80A8F3
:100950008A828B838CF0E4120A018A828B838CF06A
:10096000228A828B838CF0EF120A01A3AA82AB83C6
:100970000DBD00010E0208F8AA82AB83ACF07D0029
:100980007E008A828B838CF01209A0FFA3AA82AB1F
:1009900083EF60070DBD00EA0E80E78D828E832213
:1009A00020F71430F6148883A88220F507E6A88380
:1009B00075830022E280F7E49322E022E58285122B
:1009C000F0A4C582C0F08513F0A4D0F025F0C58353
:1009D0008512F0A42583F58322AA82BA0A08109909
:1009E0000280FB75990D10990280FB8A992210985C
:1009F0000280FBAA998A82C0021209D9D0028A8297
:100A00002220F71030F6118883A88220F507F6A877
:100A10008375830022F280F7F022758200220000A5
:00000001FF
